:100000000C945D000C9485000C9485000C94850084
:100010000C9485000C9485000C9485000C9485004C
:100020000C9485000C9485000C9485000C94790444
:100030000C9485000C9485000C9485000C9485002C
:100040000C94D7030C9485000C9447040C94210461
:100050000C9485000C9485000C9485000C9485000C
:100060000C9485000C9485000000000024002700FB
:100070002A0000000000250028002B0004040404CE
:100080000404040402020202020203030303030342
:10009000010204081020408001020408102001021F
:1000A00004081020000000080002010000030407FB
:1000B0000000000000000000560511241FBECFEF15
:1000C000D8E0DEBFCDBF11E0A0E0B1E0E4EAF1E1AD
:1000D00002C005900D92A631B107D9F722E0A6E142
:1000E000B1E001C01D92AA31B207E1F710E0CDE501
:1000F000D0E004C02197FE010E948F08CC35D107C3
:10010000C9F70E94A2050C94D0080C94000090E05E
:10011000FC01EC55FF4F2491FC01E057FF4F349157
:10012000FC01E458FF4FE491EE2309F43CC0222384
:1001300039F1233091F038F42130A9F0223001F563
:1001400084B58F7D12C0273091F02830A1F0243083
:10015000B9F4809180008F7D03C0809180008F77FB
:10016000809380000DC084B58F7784BD09C08091D5
:10017000B0008F7703C08091B0008F7D8093B00076
:10018000F0E0EE0FFF1FEE58FF4FA591B4919FB71F
:10019000F894611104C08C913095382302C0EC9121
:1001A0003E2B3C939FBF08953FB7F89480915D012B
:1001B00090915E01A0915F01B091600126B5A89B6E
:1001C00005C02F3F19F00196A11DB11D3FBFBA2FE9
:1001D000A92F982F8827820F911DA11DB11DBC0149
:1001E000CD0142E0660F771F881F991F4A95D1F70E
:1001F00008958F929F92AF92BF92CF92DF92EF922B
:10020000FF920E94D4004B015C0184E6C82ED12CE1
:10021000E12CF12C0E94D400DC01CB018819990952
:10022000AA09BB09883E9340A105B10598F321E0D6
:10023000C21AD108E108F10888EE880E83E0981E02
:10024000A11CB11CC114D104E104F10419F7FF9001
:10025000EF90DF90CF90BF90AF909F908F900895D8
:10026000CF92DF92EF92FF920F931F93CF93DF9382
:100270006C017A018B01C0E0D0E0CE15DF0581F082
:10028000D8016D918D01D601ED91FC910190F08125
:10029000E02DC6010995892B11F02196EECF7E0144
:1002A000C701DF91CF911F910F91FF90EF90DF90E9
:1002B000CF900895089580E090E00895FC01538D5B
:1002C000448D252F30E0842F90E0821B930B541730
:1002D00010F0CF96089501970895FC01918D828DBD
:1002E000981761F0828DDF01A80FB11D5D968C918A
:1002F000928D9F5F9F73928F90E008958FEF9FEF95
:1003000008950F931F93CF93DF938C01C0E0D0E04B
:100310002FB7F8948091610190916201A0916301DF
:10032000B09164012FBF80936D0190936E01A093F3
:100330006F01B093700185E691E00E946D0197FF17
:1003400025C02FB7F8948091610190916201A0912E
:100350006301B09164012FBF40916D0150916E0116
:1003600060916F0170917001841B950BA60BB70B08
:100370004091690150916A0160916B0170916C012B
:1003800084179507A607B707B0F208C0F801819354
:100390008F012196C430D10509F0BACFCE01DF918B
:1003A000CF911F910F910895FC01918D828D981727
:1003B00031F0828DE80FF11D858D90E008958FEF6B
:1003C0009FEF0895FC01918D228D892F90E0805C34
:1003D0009F4F821B91098F739927089585E691E0BD
:1003E0000E94E20121E0892B09F420E0822F089588
:1003F000FC01848DDF01A80FB11DA35ABF4F2C91C2
:10040000848D90E001968F739927848FA689B78990
:100410002C93A089B1898C91837080648C93938D87
:10042000848D981306C00288F389E02D80818F7D2A
:1004300080830895EF92FF920F931F93CF93DF93E2
:10044000EC0181E0888F9B8D8C8D981305C0E88925
:10045000F989808185FD26C0F62E0B8D10E00F5F97
:100460001F4F0F731127E02E8C8DE8120CC00FB6B2
:1004700007FCFACFE889F989808185FFF5CFCE01A5
:100480000E94F801F1CF8B8DFE01E80FF11DE35AB8
:10049000FF4FF0829FB7F8940B8FEA89FB89808128
:1004A00080620AC09FB7F894EE89FF896083E8896B
:1004B000F98980818370806480839FBF81E090E0B0
:1004C000DF91CF911F910F91FF90EF900895CF93FF
:1004D000DF93EC01888D8823C9F0EA89FB8980814C
:1004E00085FD05C0A889B9898C9186FD0FC00FB61E
:1004F00007FCF5CF808185FFF2CFA889B9898C915F
:1005000085FFEDCFCE010E94F801E7CFDF91CF91BB
:10051000089580E090E0892B29F00E94EE0181117E
:100520000C9400000895FC0190819C3088F5818135
:1005300028E830E0281B310987FD3395220F331F4F
:10054000220F331F6217730784F0828148E552E05F
:10055000481B510987FD5395440F551F440F551FE4
:100560009B01461757070CF49A0122503109220FBC
:10057000331F4FB7F894892F90E0FC01EE0FFF1F57
:100580008E0F9F1FFC01E85EFE4F328321834FBF19
:100590000895CF92DF92EF92FF92CF93DF93EC0119
:1005A000603282E078070CF03DC077FD06C0653B05
:1005B00071052CF064EB70E002C060E070E08981AE
:1005C00028E830E06901C81AD10887FDD394CC0C23
:1005D000DD1CCC0CDD1C0D2C000CEE08FF088A8104
:1005E00028E532E0281B310987FD3395220F331FA0
:1005F000220F331FC901330FAA0BBB0B9C01AD01A6
:100600002C193D094E095F09DB010E944A0824EBC1
:1006100030E040E050E00E942008C20ED31EE41EED
:10062000F51EB601CE01DF91CF91FF90EF90DF90E4
:10063000CF900C949302CF93DF93DC018C918C309C
:1006400008F06DC0CB019927FC01E057FF4F2491C2
:10065000FC01E458FF4F8491882399F090E0880FC3
:10066000991FFC01E859FF4FC591D491FC01EE5848
:10067000FF4F859194918FB7F894E881E22BE8833E
:100680008FBF8C91E82FF0E09F01220F331FE20F04
:10069000F31FE85EFE4F6F739081907C692B60833F
:1006A00011961C92119712961C9212976CE00E9460
:1006B00083089CE0899FB001112440E050E09B0139
:1006C000240F351FF901EE0FFF1F2E0F3F1FF901F9
:1006D000E85EFE4F908196FD16C04F5F5F4F4C3035
:1006E000510569F781110FC01092800082E080935C
:1006F00081001092850010928400B19A80916F0061
:10070000826080936F00EC91F0E0CF01880F991F19
:10071000E80FF91FE85EFE4F8081806480838C9132
:10072000DF91CF91089585E691E00E94E201049760
:10073000E0F080E591E00E9481018CE391E00E946D
:10074000810180E491E00E94810184E491E00E94B3
:10075000810188E491E00E9481018CE491E00E9493
:10076000810188E591E00C948101089520E030E05A
:1007700048EC52E40E9462070E9495089B01AC017C
:100780002C593F4F4F4F5F4FA4EAB6E00E943F08FD
:1007900028EC30E040E050E00E942008DA01C90176
:1007A00086579D4FAF4FBF4F08950E94CB081F92B1
:1007B0000F920FB60F9211242F933F938F939F9315
:1007C000AF93BF938091610190916201A091630109
:1007D000B091640130915C0123E0230F2D3720F4A8
:1007E0000196A11DB11D05C026E8230F0296A11D8B
:1007F000B11D20935C018093610190936201A093ED
:100800006301B093640180915D0190915E01A091BC
:100810005F01B09160010196A11DB11D80935D0142
:1008200090935E01A0935F01B0936001BF91AF917F
:100830009F918F913F912F910F900FBE0F901F901E
:1008400018951F920F920FB60F9211242F933F937A
:100850004F935F936F937F938F939F93AF93BF93C8
:10086000EF93FF9385E691E00E94F801FF91EF91ED
:10087000BF91AF919F918F917F916F915F914F91B8
:100880003F912F910F900FBE0F901F9018951F92C0
:100890000F920FB60F9211242F938F939F93EF9384
:1008A000FF93E0917501F09176018081E0917B01E9
:1008B000F0917C0182FD12C0908180917E018F5F5A
:1008C0008F7320917F01821751F0E0917E01F0E05B
:1008D000EB59FE4F958F80937E0101C08081FF917F
:1008E000EF919F918F912F910F900FBE0F901F90BE
:1008F00018951F920F920FB60F9211242F933F93CA
:100900004F935F936F937F938F939F93AF93BF9317
:10091000EF93FF938091160187FF05C01092850029
:10092000109284001BC020911601022E000C330B84
:100930008091170190E02817390784F480911601FF
:10094000082E000C990BFC01EE0FFF1F8E0F9F1F4E
:10095000FC01E85EFE4F808186FD15C08091160186
:100960008F5F8093160120911601022E000C330B2D
:100970008091170190E028173907C4F4809116017F
:100980008C3064F113C080911601082E000C990B75
:10099000FC01EE0FFF1F8E0F9F1FFC01E85EFE4F54
:1009A000808160E08F730E948700D8CF809184009F
:1009B00090918500049680349C4918F480E49CE969
:1009C00005C08091840090918500049690938900E1
:1009D000809388008FEF809316013BC020918400A4
:1009E0003091850080911601082E000C990BFC01B6
:1009F000EE0FFF1F8E0F9F1FFC01E85EFE4F8181EF
:100A00009281820F931F9093890080938800809138
:100A10001601082E000C990BFC01EE0FFF1F8E0F24
:100A20009F1FFC01E85EFE4F808186FF12C080910F
:100A30001601082E000C990BFC01EE0FFF1F8E0F04
:100A40009F1FFC01E85EFE4F808161E08F730E9472
:100A50008700FF91EF91BF91AF919F918F917F910F
:100A60006F915F914F913F912F910F900FBE0F901B
:100A70001F901895FC01909117019C30A0F481E023
:100A8000890F809317019083892F90E0FC01EE0F6E
:100A9000FF1F8E0F9F1FFC01E85EFE4F88EB9BE05F
:100AA0009283818308958FEF80830895E5E6F1E0D6
:100AB0001382128288EE93E0A0E0B0E084839583F5
:100AC000A683B78388E091E09183808385EC90E0F2
:100AD0009587848784EC90E09787868780EC90E008
:100AE000918B808B81EC90E0938B828B82EC90E0F9
:100AF000958B848B86EC90E0978B868B118E128E73
:100B0000138E148E87E192E00E943A0584E192E010
:100B10000E943A0581E192E00E943A058EE092E05F
:100B20000E943A058BE092E00E943A0588E092E04C
:100B30000E943A0585E092E00E943A0582E092E048
:100B40000C943A05789484B5826084BD84B5816044
:100B500084BD85B5826085BD85B5816085BD809188
:100B60006E00816080936E00109281008091810000
:100B700082608093810080918100816080938100F8
:100B8000809180008160809380008091B1008460BA
:100B90008093B1008091B00081608093B00080911B
:100BA0007A00846080937A0080917A0082608093DA
:100BB0007A0080917A00816080937A0080917A0037
:100BC000806880937A001092C100E0917501F091E5
:100BD000760182E08083E0917101F09172011082D0
:100BE000E0917301F09174018FEC808310927D018C
:100BF000E0917901F0917A0186E08083E0917701BC
:100C0000F0917801808180618083E0917701F0919B
:100C10007801808188608083E0917701F09178018C
:100C2000808180688083E0917701F09178018081F4
:100C30008F7D808369E070E081E192E00E941B0378
:100C40006AE070E08EE092E00E941B036BE070E0CF
:100C50008BE092E00E941B036CE070E088E092E081
:100C60000E941B036DE070E085E092E00E941B0390
:100C700067E070E082E092E00E941B0365E070E0B4
:100C800087E192E00E941B0366E070E084E192E05D
:100C90000E941B030E949303C4EBD0E00E949303C5
:100CA00060913C0170913D0180913E0190913F0126
:100CB0000E94B603BC0181E192E00E949302609120
:100CC00040017091410180914201909143010E9445
:100CD000B603BC018EE092E00E9493026091440151
:100CE0007091450180914601909147010E94B603A1
:100CF000BC018BE092E00E949302609148017091E8
:100D0000490180914A0190914B010E94B603BC01B8
:100D100088E092E00E94930260914C0170914D0135
:100D200080914E0190914F010E94B603BC0185E075
:100D300092E00E9493026091580170915901809154
:100D40005A0190915B010E94950882E092E00E9416
:100D5000C902C0905001D0905101E0905201F09032
:100D6000530120E030E040E85FE3C701B6010E9494
:100D70003907811110C020910201309103012B5FCE
:100D80003F4F309303012093020180910001909125
:100D90000101059719C020E030E040E85FEBC70192
:100DA000B6010E943907811148C02091020130919B
:100DB00003012550310930930301209302018091F2
:100DC000000190910101059690930101809300012B
:100DD00037FF04C01092030110920201209102011A
:100DE00030910301253B310524F0D0930301C093DA
:100DF000020197FF04C0109201011092000180913E
:100E0000000190910101853B910524F0D0930101EF
:100E1000C0930001609102017091030187E192E0AB
:100E20000E94C902609100017091010184E192E089
:100E30000E94C9020E94F90019C020E030E0A90117
:100E4000C701B6010E943907811110C060910201EB
:100E50007091030187E192E00E94C9026091000154
:100E60007091010184E192E00E94C9020E9489020E
:100E700015CF0E943E0708F481E00895990F0008FD
:100E8000550FAA0BE0E8FEEF16161706E807F9075C
:100E9000C0F012161306E407F50798F0621B730BF7
:100EA000840B950B39F40A2661F0232B242B252B78
:100EB00021F408950A2609F4A140A6958FEF811D1B
:100EC000811D08950E9475070C94E6070E94D807BB
:100ED00038F00E94DF0720F0952311F00C94CF0723
:100EE0000C94D50711240C941A080E94F70770F38C
:100EF000959FC1F3950F50E0551F629FF001729FBF
:100F0000BB27F00DB11D639FAA27F00DB11DAA1FCD
:100F1000649F6627B00DA11D661F829F2227B00D1A
:100F2000A11D621F739FB00DA11D621F839FA00DA5
:100F3000611D221F749F3327A00D611D231F849FF5
:100F4000600D211D822F762F6A2F11249F5750404C
:100F50009AF0F1F088234AF0EE0FFF1FBB1F661FC7
:100F6000771F881F91505040A9F79E3F510580F090
:100F70000C94CF070C941A085F3FE4F3983ED4F327
:100F8000869577956795B795F795E7959F5FC1F734
:100F9000FE2B880F911D9695879597F9089597F9DF
:100FA0009F6780E870E060E008959FEF80EC08950F
:100FB00000240A9416161706180609060895002438
:100FC0000A9412161306140605060895092E0394B2
:100FD000000C11F4882352F0BB0F40F4BF2B11F426
:100FE00060FF04C06F5F7F4F8F4F9F4F089557FD85
:100FF0009058440F551F59F05F3F71F04795880F87
:1010000097FB991F61F09F3F79F08795089512161D
:1010100013061406551FF2CF4695F1DF08C01616C9
:1010200017061806991FF1CF86957105610508947A
:101030000895E894BB2766277727CB0197F9089591
:10104000052E97FB1EF400940E94370857FD07D029
:101050000E94520807FC03D04EF40C9437085095B8
:101060004095309521953F4F4F4F5F4F0895909594
:101070008095709561957F4F8F4F9F4F08950E9487
:101080007408A59F900DB49F900DA49F800D911D95
:1010900011240895B7FF0C943F080E943F08821B5B
:1010A000930B0895A1E21A2EAA1BBB1BFD010DC0D4
:1010B000AA1FBB1FEE1FFF1FA217B307E407F50708
:1010C00020F0A21BB30BE40BF50B661F771F881FE4
:1010D000991F1A9469F760957095809590959B017A
:1010E000AC01BD01CF010895A29FB001B39FC00123
:1010F000A39F700D811D1124911DB29F700D811D44
:101100001124911D0895991B79E004C0991F961729
:1011100008F0961B881F7A95C9F780950895EE0F01
:10112000FF1F0590F491E02D09940E949C0868949B
:10113000B1110C941A0808950E94FF0788F09F5778
:1011400098F0B92F9927B751B0F0E1F0660F771FEB
:10115000881F991F1AF0BA95C9F714C0B13091F0E1
:101160000E941908B1E008950C941908672F782F90
:101170008827B85F39F0B93FCCF3869577956795A6
:10118000B395D9F73EF490958095709561957F4F12
:101190008F4F9F4F089581E090E0F8940C94D00811
:0411A000F894FFCFF1
:1011A40078005A00000000001A0230015E01670254
:0611B400E2016D01D4010F
:00000001FF
